:100000000C9412030C949C100C9475100C949D117C
:100010000C949D110C949D110C943A030C94C310F4
:100020000C943A030C943A030C943A030C943A035C
:100030000C943A030C943A030C943A030C943A034C
:100040000C9482170C943A030C946B110C94451188
:100050000C943A030C943A030C943A030C943A032C
:100060000C943A030C943A031301803211806426F5
:100070000104B1020B14C0020800C10105C5024110
:1000800030C701C1EC011B3A8155642A040000000D
:100090007F2B040000009F3601C8B70100F2010069
:1000A000E08F282422312B0E53A5421618121A1461
:1000B0000332E18F171B1D0E14112CA53D09272DAE
:1000C000252B3C3213800A2980FF00000000003EEF
:1000D0005B4F5B3E3E6B4F6B3E1C3E7C3E1C183CB8
:1000E0007E3C181C577D571C1C5E7F5E1C00183C14
:1000F0001800FFE7C3E7FF0018241800FFE7DBE75D
:10010000FF30483A060E2629792926407F05050743
:10011000407F05253F5A3CE73C5A7F3E1C1C08089F
:100120001C1C3E7F14227F22145F5F005F5F060964
:100130007F017F006689956A606060606094A2FFBD
:10014000A29408047E040810207E201008082A1CAF
:1001500008081C2A08081E101010100C1E0C1E0C7B
:1001600030383E3830060E3E0E060000000000001B
:10017000005F00000007000700147F147F14242A8A
:100180007F2A12231308646236495620500008075C
:100190000300001C2241000041221C002A1C7F1C7D
:1001A0002A08083E0808008070300008080808087F
:1001B000000060600020100804023E5149453E00E6
:1001C000427F400072494949462141494D33181444
:1001D000127F1027454545393C4A49493141211193
:1001E00009073649494936464949291E0000140085
:1001F00000004034000000081422411414141414A8
:10020000004122140802015909063E415D594E7C05
:100210001211127C7F494949363E414141227F41BA
:1002200041413E7F494949417F090909013E414118
:1002300051737F0808087F00417F41002040413F03
:10024000017F081422417F404040407F021C027F12
:100250007F0408107F3E4141413E7F090909063E67
:100260004151215E7F091929462649494932030136
:100270007F01033F4040403F1F2040201F3F403848
:10028000403F631408146303047804036159494D23
:1002900043007F4141410204081020004141417F59
:1002A00004020102044040404040000307080020CF
:1002B000545478407F2844443838444444283844CF
:1002C00044287F385454541800087E090218A4A406
:1002D0009C787F0804047800447D40002040403D25
:1002E000007F1028440000417F40007C047804789F
:1002F0007C080404783844444438FC182424181832
:10030000242418FC7C08040408485454542404048D
:100310003F44243C4040207C1C2040201C3C40307A
:10032000403C44281028444C9090907C4464544CA9
:100330004400083641000000770000004136080004
:1003400002010204023C2623263C1EA1A161123AAE
:100350004040207A385454555921555579412154FB
:10036000547841215554784020545579400C1E5200
:1003700072123955555559395454545939555454A4
:10038000580000457C410002457D420001457C400B
:10039000F0292429F0F0282528F07C545545002028
:1003A00054547C547C0A097F4932494949323248C5
:1003B000484832324A4848303A4141217A3A42402C
:1003C0002078009DA0A07D39444444393D40404000
:1003D0003D3C24FF2424487E4943662B2FFC2F2BD1
:1003E000FF0929F620C0887E090320545479410072
:1003F00000447D413048484A32384040227A007AF1
:100400000A0A727D0D19317D2629292F28262929CE
:10041000292630484D4020380808080808080808F0
:10042000382F10C8ACBA2F102834FA00007B000017
:1004300008142A142222142A1408AA005500AAAA71
:1004400055AA55AA000000FF00101010FF00141458
:1004500014FF001010FF00FF1010F010F01414141F
:10046000FC001414F700FF0000FF00FF1414F40454
:10047000FC141417101F10101F101F1414141F0049
:10048000101010F0000000001F101010101F1010AE
:100490001010F010000000FF1010101010101010BD
:1004A00010FF10000000FF140000FF00FF00001FFD
:1004B00010170000FC04F414141710171414F4049B
:1004C000F40000FF00F714141414141414F700F7C8
:1004D000141414171410101F101F141414F41410F3
:1004E00010F010F000001F101F0000001F1400008B
:1004F00000FC140000F010F01010FF10FF14141492
:10050000FF141010101F00000000F010FFFFFFFF8D
:10051000FFF0F0F0F0F0FFFFFF0000000000FFFF31
:100520000F0F0F0F0F38444438447C2A2A3E147EA4
:1005300002020606027E027E026355494163384488
:10054000443C04407E201E2006027E020299A5E75C
:10055000A5991C2A492A1C4C7201724C304A4D4DF7
:10056000303048784830BC625A463D3E49494900DF
:100570007E0101017E2A2A2A2A2A44445F444440FB
:10058000514A444040444A51400000FF0103E0808A
:10059000FF000008086B6B083612362436060F0978
:1005A0000F06000018180000001010003040FF0176
:1005B00001001F01011E00191D1712003C3C3C3CAC
:1005C00000000000000200000000230026002900B7
:1005D00000000000250028002B000404040404048B
:1005E00004040202020202020303030303030102E2
:1005F00004081020408001020408102001020408B1
:10060000102000000000240027002A00000000083D
:1006100000020100000304070000000000000000C9
:10062000B11ACC1711241FBECFEFD8E0DEBFCDBF6B
:1006300023E0ACE1B2E001C01D92A439B207E1F7BA
:1006400012E0A0E0B1E0E8E6FDE302C005900D9203
:10065000AC31B107D9F713E0C1E1D3E004C0219771
:10066000FE010E94921CC031D107C9F70E94EC170D
:100670000C94A71E0C9400004C7F38E0439FC001EF
:10068000112430E043E0359527954A95E1F7822B18
:10069000932B687F962B089508952F923F924F9247
:1006A0005F926F927F928F929F92AF92BF92CF9202
:1006B000DF92EF92FF920F931F93CF93DF93CDB70B
:1006C000DEB72D970FB6F894DEBF0FBECDBF9D836A
:1006D0008C836A30A1F4DC0154962C9154971E96B9
:1006E0008D919C911F97B8E02B9F800D911D112437
:1006F000EC81FD819787868715861486F1C06D3061
:1007000009F4EEC02C813D813D872C87D9011C96D0
:10071000CD90DC901D9718968D919C911997C816D5
:10072000D906BCF0EC85FD854489242F30E0848512
:100730009585F6E04F9F800D911D1124AC85BD85F8
:100740001D969C938E931C9756964C914111A4C074
:10075000C7C0EC85FD85868497848285938588163D
:10076000990604F7F489F983AF2EB12CC60126E06F
:10077000F29F800D911D1124181619069CF6C501D3
:1007800023E0880F991F2A95E1F7880D991D181607
:10079000190644F6AC85BD8552960D90BC91A02DEE
:1007A000BD83AC83EC85FD850088F189E02DFF8356
:1007B000EE83F5E06F9FB001112416011A829B01B0
:1007C0002C193D0939872887C40108969B878A8799
:1007D0009A81953049F0E885F985E20DF31DE653DD
:1007E000FF4FA491AB8301C01B8224013401BB8164
:1007F000B0FF13C0AC85BD85ED91FC91B981B130DE
:1008000031F40084F185E02D2E813F8119C00288EA
:10081000F389E02DEE80FF801EC0EC81FD812E81EA
:100820003F81E217F307F1F0AC85BD85ED91FC91B6
:10083000B981B13059F40084F185E02D2C813D81DE
:10084000A301B1018C859D8509950CC00288F389AF
:10085000E02DEC80FD8085019501A201B6018C851B
:100860009D850995EB81E695EB83FFEF6F1A7F0A73
:100870004A0C5B1C2A853B852615370509F0B7CF46
:100880003A813F5F3A835FEF251A350ACA0CDB1CB9
:10089000363009F09DCF46CF4AEF4203B001439F67
:1008A000700D1124AC85BD8518964D915C911997FA
:1008B000460F571F481759079CF483E0220F331F38
:1008C0008A95E1F71E968D919C911F97280F391FED
:1008D0001F963C932E931E971D961C921E921C975A
:1008E00081E090E02D960FB6F894DEBF0FBECDBF2D
:1008F000DF91CF911F910F91FF90EF90DF90CF90FC
:10090000BF90AF909F908F907F906F905F904F902F
:100910003F902F900895EF92FF920F931F93DC0169
:100920001A960D911C911B9718962D913C91199731
:10093000ED91FC910288F389E02D7B0140E050E0CD
:1009400060E070E009951F910F91FF90EF9008957E
:100950006F927F928F929F92AF92BF92CF92DF92CF
:10096000EF92FF920F931F93CF93DF936C015A0185
:100970004801EB013B01620E731EC615D70574F4E6
:10098000D601ED91FC910484F585E02D8701940159
:10099000A501BE01C60109952196EFCFDF91CF9148
:1009A0001F910F91FF90EF90DF90CF90BF90AF908D
:1009B0009F908F907F906F900895EF92FF920F938A
:1009C0001F93260F371F21503109DC01ED91FC9157
:1009D0000284F385E02D78018A0109951F910F911A
:1009E000FF90EF900895EF92FF920F931F93240FC3
:1009F000351F21503109DC01ED91FC910284F38512
:100A0000E02D780189019B0109951F910F91FF90BD
:100A1000EF9008956F927F928F929F92AF92BF92C4
:100A2000CF92DF92EF92FF920F931F93CF93DF93BA
:100A3000EC014B015A0169013801E881F981068412
:100A4000F785E02D87010995A501460D571D4150F9
:100A50005109E881F9810684F785E02D9601B401FA
:100A6000CE010995E881F9810484F585E02D930193
:100A7000A501B401CE010995C80CD91CB60161507D
:100A80007109E881F9810484F585E02D9301A501C0
:100A9000CE010995DF91CF911F910F91FF90EF90BB
:100AA000DF90CF90BF90AF909F908F907F906F908E
:100AB00008952F923F924F925F926F927F928F9202
:100AC0009F92AF92BF92CF92DF92EF92FF920F93DD
:100AD0001F93CF93DF9300D000D000D0CDB7DEB707
:100AE0002C017E836D836A015901C801FC82EB826F
:100AF0004801841A950A97FE03C091948194910845
:100B000035012D813E81621A730A77FE03C071940C
:100B100061947108681479045CF43A2D2B2D5C0102
:100B2000832F922F3D812E81DE82CD82C32ED22E45
:100B3000AD81BE81AA16BB065CF43C2D2D2D6C0147
:100B4000832F922F3D812E81BE82AD82A32EB22EA5
:100B500085012D813E81021B130B1C012C183D08C1
:100B600037FE03C0319421943108780117FF03C088
:100B70003FEFE31AF30AF594E794C816D9062CF070
:100B80008FEF9FEF9A83898304C0A1E0B0E0BA831E
:100B9000A9832D813E81A216B30624F1D201ED91E5
:100BA000FC910084F185E02D2B813C81681479044F
:100BB00024F44D815E81B60103C0A6016D817E8162
:100BC000C2010995E218F308F7FE06C029813A81AF
:100BD000C20ED31EE00EF11E8D819E8101969E8372
:100BE0008D83D7CF26960FB6F894DEBF0FBECDBF4C
:100BF000DF91CF911F910F91FF90EF90DF90CF90F9
:100C0000BF90AF909F908F907F906F905F904F902C
:100C10003F902F90089580E090E00895BC016E5FB2
:100C20007F4FDC01ED91FC910190F081E02D40E0DF
:100C3000099591E0811190E0892F0895CF93CFB766
:100C4000F89480911C02811127C0E4EEF5E08491B4
:100C5000E8EFF5E09491E82FF0E0EE0FFF1FEE5F74
:100C6000F94FA591B491EC91E92321F461E08AE078
:100C70000E94CC1561E08AE00E940C178CB580615F
:100C80008CBD8CB580648CBD61E08DE00E940C173A
:100C900061E08BE00E940C1780911C028F5F8093B3
:100CA0001C02CFBFCF91089508958EBD00000DB4F2
:100CB00007FEFDCF8EB50895FC01862F968D91110C
:100CC0000C94550628E030E040E8A1A1B2A196A519
:100CD000582F542319F05C91952B03C05C9190958B
:100CE00095239C93A3A1B4A15C9197A5952B9C936C
:100CF000A3A1B4A15C9197A5909595239C9346954B
:100D00002150310911F708958CBD9DBD08951F93A1
:100D1000CF93DF93EC01162F83E590E00E948406C9
:100D200060E08E850E94CC15812F80680E94550658
:100D300080E00E945506182F61E08E850E94CC1538
:100D4000812FDF91CF911F9108950F931F93CF9320
:100D5000DF93EC01062F142F83E590E00E948406B8
:100D600060E08E850E94CC15802F0E945506812F51
:100D70000E94550661E08E85DF91CF911F910F9102
:100D80000C94CC15CF92DF92EF92FF920F931F93AA
:100D9000CF93DF93EC016B01142F790140E062E007
:100DA0000E94A50644E06AE0CE010E94A50640E844
:100DB00064E1CE010E94A506A601612FCE010E942A
:100DC0000D1543E062E0CE010E94A50608E813E19C
:100DD0006AE0CE010E94870682FF13C040E062E015
:100DE000CE010E94A50664E4CE010E948706F701A9
:100DF000808362E4CE010E948706F701818380E050
:100E000004C00150110921F783E0DF91CF911F91B8
:100E10000F91FF90EF90DF90CF9008950F931F9365
:100E2000CF93DF938C01D62FC42F0E948706C095E5
:100E30004C2F48236D2FC801DF91CF911F910F9147
:100E40000C94A5068F929F92AF92CF92EF92FF9251
:100E50000F931F93CF93DF9300D000D01F92CDB795
:100E6000DEB74C0182E08D8340E064E2C4010E9461
:100E7000A50640E066E2C4010E94A50646E268E4D9
:100E8000C4010E94A50686E28B838D81823018F111
:100E900040E86CE1C4010E940E0787E08C83A12C1E
:100EA000C12CCE0104967C018E010B5F1F4F9E0169
:100EB0002F5F3F4F41E0BE016D5F7F4FC4010E9435
:100EC000FB1581110BC08D81823039F481E09C814A
:100ED000911104C008C084E001C081E091E082303B
:100EE00019F090E001C091E0892F0F900F900F90C2
:100EF0000F900F90DF91CF911F910F91FF90EF9086
:100F0000CF90AF909F908F9008952F923F924F92E5
:100F10005F926F927F928F929F92AF92BF92CF9289
:100F2000DF92EF92FF920F931F93CF93DF93CDB792
:100F3000DEB72C970FB6F894DEBF0FBECDBF41359C
:100F400008F006C1342E3B014C0140E86CE10E94E0
:100F50000E072224239432E0231691F083E0281612
:100F6000E1F091E02912F6C083E989833320D1F0C2
:100F700081E0F3019081953008F480E0B12C17C036
:100F8000F5E9F983332081F081E0F3019081983015
:100F900008F480E043E0B42E0AC087E9898336E094
:100FA000B32E04C0B12C02C023E0B22E80E0D32CBB
:100FB000F8E0BF9ED0181124D7FCD12C882321F053
:100FC00098E89B8333E001C032E021E09D2D9770CB
:100FD00009F420E09D2D959595959595290F31F46F
:100FE000882309F492C038E0D30E8FC0811102C06B
:100FF00094E001C093E0291708F4922FEB2DF0E064
:101000003196E60DF71D232F4191A1E0B0E0AC0F22
:10101000BD1FA20FB11D4C932F5F422F431B4917D9
:1010200098F3DECF8111DEC09FE19D150CF494C0D2
:1010300080E2D82E90E79A839B818C8189279D81BD
:1010400089279E8189278F839E01285F3F4F47E034
:10105000BE016F5F7F4FC4010E94C2068111A3C011
:101060001A86E3E0EB87CE0107962C0199E09C8776
:10107000CA844C2D4295407F4C0D6AE1C4010E9408
:10108000A506A12CCE010A967C018E01055F1F4F9B
:1010900092014C85BE016F5F7F4FC4010E94FB151A
:1010A000182F823009F0BECF6CE1C4010E94870680
:1010B00085FD98C08F7109F480E2282F30E04D2D16
:1010C000DD0C550B421753070CF044C0D82E859504
:1010D0008595859591E0980F422F477081E009F43E
:1010E00080E0890FE1E0F0E0EC0FFD1FE80FF11D5B
:1010F000215031092770332781E090E001C0880F2B
:101100002A95EAF79081892B80838FE18D150CF465
:1011100091CF9D2D97709A878D2D85958595859575
:101120008E5F292FE0E18E9F200D11242A8321E07C
:10113000911101C020E0280F2C8744244394512CA6
:101140004C0E5D1E480E511CF9E0F81BFB8790CF3A
:1011500016E048C015E046C08B81883809F43FC0CE
:1011600082E094E0EB2DF0E03196E60DF71D980F4C
:10117000A1E0B0E0AC0FBD1FA80FB11D2C912193D1
:101180008F5F8913F5CF8B85833029F58A8581118F
:1011900022C09E012D5F3F4F41E0B201C4010E9479
:1011A000C206882311F0182F1DC09B81F201818196
:1011B000981313C09C81828198130FC0808182FF95
:1011C00002C02394C8CEF3018387822D880F820D3D
:1011D0008F5F808307C011E005C017E003C083E084
:1011E00093E0C0CF812F2C960FB6F894DEBF0FBED0
:1011F000CDBFDF91CF911F910F91FF90EF90DF90C6
:10120000CF90BF90AF909F908F907F906F905F90A6
:101210004F903F902F90089560E082E00E940C175D
:1012200060E083E00E940C1710926202089561E072
:1012300082E00E940C1761E083E00E940C1781E0BD
:101240008093620208950E94170981E080936102F1
:1012500008950C941709CF92DF92EF92FF920F93AB
:101260001F93CF93DF93109257031092560361E0C0
:1012700080914E030E940C1761E080914D030E9403
:101280000C1780914D0390E0FC01E652FA4FE49177
:10129000F0E0EE0FFF1FE053FA4F259134913093A9
:1012A0004A0320934903FC01E251FA4FE491E09391
:1012B000540380914E0390E0FC01E652FA4FE49112
:1012C000F0E0EE0FFF1FE053FA4F25913491309379
:1012D0004C0320934B03FC01E251FA4FE491E0935D
:1012E000550380914203882341F00E941E0680E549
:1012F000809343031092440349C061E080915103FD
:101300000E940C1761E0809150030E940C1780919D
:10131000510390E0FC01E652FA4FE491F0E0EE0F49
:10132000FF1FE053FA4FA591B491B0934803A093E7
:101330004703FC01E251FA4F8491809353032091BB
:10134000500330E0F901E652FA4FE491F0E0EE0F7D
:10135000FF1FE053FA4F4591549150934603409339
:101360004503F901E251FA4FE491E09352039C9155
:10137000E82FE095E923EC93E0914503F0914603D3
:10138000908180915203809589238083E091490365
:10139000F0914A0390818091540380958923808342
:1013A00080914F03882321F161E00E940C1761E0D6
:1013B00080914F030E94CC1564EF71E080E090E0D3
:1013C0000E94481760E080914F030E94CC1564EFA3
:1013D00071E080E090E00E94481761E080914F0347
:1013E0000E94CC1564EF71E080E090E00E94481705
:1013F000E8E6F0E0F490C9E6D0E0FF2009F437C059
:10140000FE01649184E293E00E9446126E01F2E0D4
:10141000CF0ED11CFE013196C4918C2F8078E82E1E
:10142000CF778601DC2FD15048F0F801649184E237
:1014300093E00E9417120F5F1F4FF5CFC6018C0F6C
:10144000911DEC01E11002C0FA94D7CF8C010F5F1F
:101450001F4FFC01649170E06F3F710511F464EF60
:1014600071E080E090E00E944817E801EDCF66E36C
:1014700084E293E00E944612C1E0C093390368EA17
:1014800084E293E00E94171280EA90E090932D038B
:1014900080932C0380E890E090932F0380932E0399
:1014A00080E098EF0E94A912C0933D038FEF9FEF59
:1014B00090933C0380933B039093350380933403D4
:1014C0009093370380933603C093380368E270E04B
:1014D00088E991E00E947D121092790310927803BE
:1014E0001092770310927603109275031092740392
:1014F00085E690E090937B0380937A0390916A0352
:10150000963108F058C021E230E030937503209303
:10151000740323E630E0309377032093760322E4CC
:1015200030E030937903209378034091680098303D
:1015300058F031E09E3008F430E021E0822F01C005
:10154000880F3A95EAF701C084E0842B8093680005
:10155000983038F09E3040F0963148F020E030E08E
:1015600008C02DE630E005C02BE630E002C02CE6D6
:1015700030E03093720320937103983030F481E0AF
:1015800001C0880F9A95EAF70EC0292F30E09E30EF
:1015900018F42850310902C02E50310981E001C0F1
:1015A000880F2A95EAF78093730380917A039091CC
:1015B0007B030197F1F78091780390917903892B50
:1015C00049F1E0911F02F091200283E0EE35F80727
:1015D00009F1309739F0A389B4899C918589809568
:1015E00089238C9380917C038E7F80937C0310925F
:1015F0001D0210921E028EE593E0909320028093CC
:101600001F02E0917103F091720390818091730346
:10161000892B8083E0918702F091880282E08083A9
:10162000E0918302F09184021082E0918502F091B2
:1016300086028FEC808310928F02E0918B02F091F2
:101640008C0286E08083E0918902F0918A02808199
:1016500080618083E0918902F0918A0280818860B4
:101660008083E0918902F0918A0280818068808382
:10167000E0918902F0918A0280818F7D80830E94AF
:101680001E0661E0809122030E940C1761E08091A8
:1016900022030E94CC15809123038F3F41F44FE039
:1016A00062E084E193E00E94A506C3E025C060E00B
:1016B0000E940C172091230330E0F901E45FF94FF9
:1016C0008491F901E251FA4FD491F901E652FA4FAF
:1016D000C491CC23F9F081110E94A315EC2FF0E006
:1016E000EE0FFF1FEA53FA4FA591B491EC91ED2351
:1016F00089F0D5CFC15039F162E370E080E090E02D
:101700000E94481762E084E193E00E94870684FF0C
:101710001AC0F0CF61E0809123030E940C1760E0B3
:10172000809123030E94CC1583E090E00197F1F7AC
:1017300061E0809123030E94CC1562E370E080E0B9
:1017400090E00E94481740E064E284E193E00E9448
:10175000A50640E066E284E193E00E94A50646E229
:1017600068E484E193E00E94A50640E864E584E132
:1017700093E00E94A50649EA66E584E193E00E94B1
:10178000A50643E068E584E193E00E94A50648EEE3
:101790006AE584E193E00E94A50640E46AE284E100
:1017A00093E00E94A5064DE362E284E193E00E948B
:1017B000A50668E284E193E00E948706982F937063
:1017C000933039F0482F436068E284E193E00E944F
:1017D000A50689E299E09093010180930001809130
:1017E00069008C7F826080936900E89A83E299E0C7
:1017F000909303018093020180916900837F886048
:1018000080936900E99A61E082E00E940C1761E030
:1018100083E0DF91CF911F910F91FF90EF90DF90C8
:10182000CF900C940C1708950895CF92DF92EF9209
:10183000FF920F931F93CF93DF936C017A018B017B
:10184000C0E0D0E0CE15DF0581F0D8016D918D01AB
:10185000D601ED91FC910190F081E02DC601099532
:10186000892B11F02196EECF7E01C701DF91CF9138
:101870001F910F91FF90EF90DF90CF900895FC01A2
:10188000538D448D252F30E0842F90E0821B930BE5
:10189000541710F0CF96089501970895FC01918D8B
:1018A000828D981761F0828DDF01A80FB11D5D96C2
:1018B0008C91928D9F5F9F73928F90E008958FEF30
:1018C0009FEF0895FC01918D828D981731F0828DE4
:1018D000E80FF11D858D90E008958FEF9FEF08953B
:1018E000FC01918D228D892F90E0805C9F4F821B9F
:1018F00091098F739927089587E792E00E94700CF1
:1019000021E0892B09F420E0822F0895FC01848DC9
:10191000DF01A80FB11DA35ABF4F2C91848D90E019
:1019200001968F739927848FA689B7892C93A089F4
:10193000B1898C91837080648C93938D848D98137E
:1019400006C00288F389E02D80818F7D8083089511
:10195000EF92FF920F931F93CF93DF93EC0181E0FF
:10196000888F9B8D8C8D981305C0E889F9898081BB
:1019700085FD26C0F62E0B8D10E00F5F1F4F0F73F5
:101980001127E02E8C8DE8120CC00FB607FCFACFA1
:10199000E889F989808185FFF5CFCE010E94860C08
:1019A000F1CF8B8DFE01E80FF11DE35AFF4FF0825E
:1019B0009FB7F8940B8FEA89FB89808180620AC007
:1019C0009FB7F894EE89FF896083E889F98980815F
:1019D0008370806480839FBF81E090E0DF91CF912E
:1019E0001F910F91FF90EF900895CF93DF93EC013B
:1019F000888D8823C9F0EA89FB89808185FD05C02F
:101A0000A889B9898C9186FD0FC00FB607FCF5CF68
:101A1000808185FFF2CFA889B9898C9185FFEDCFB0
:101A2000CE010E94860CE7CFDF91CF91089580E030
:101A300090E0892B29F00E947C0C81110C9400000D
:101A4000089520911F02309120022817390771F460
:101A500090911E0280911D02981741F0E0911E02A4
:101A6000F0E0EF5DFD4F808190E008958FEF9FEFF4
:101A7000089508951F93CF93DF93DC015C968D91B9
:101A80009C915D97009739F421E030E013963C93E8
:101A90002E9312973BC05196ED91FC915297509620
:101AA0002C915097322F30951FB75E964C915E97D0
:101AB000742F727041FD6095F8944081772311F086
:101AC000422B01C043234083EC012197F1F748E00A
:101AD000508160FF02C0522B01C053235083EC01A0
:101AE0002197F1F76695415099F78081772319F096
:101AF0008323808302C0282B20831FBF5C968D9197
:101B00009C915D970197F1F781E090E0DF91CF9193
:101B10001F91089520911F02309120022817390744
:101B200071F480911D0220911E0290E0805C9F4F15
:101B3000821B910960E470E00E94291C089580E0F6
:101B400090E0089520911F02309120022817390754
:101B5000B9F490911E0280911D02981789F0E091CE
:101B60001E02F0E0EF5DFD4F808120911E0230E00B
:101B70002F5F3F4F2F73332720931E0290E008956D
:101B80008FEF9FEF0895EF92FF920F931F93DC0169
:101B90001A960D911C911B9718962D913C911997AF
:101BA000ED91FC910288F389E02D7B0140E050E04B
:101BB00060E070E009951F910F91FF90EF900895FC
:101BC000AF92BF92CF92DF92EF92FF920F931F934B
:101BD000CF93DF93EC01590168012885398562179D
:101BE00073070CF075C08A859B85481759070CF060
:101BF0006FC0FB01EA0DFB1D2E173F071CF45901B6
:101C0000A61AB70A9A012C0D3D1D821793071CF4E2
:101C10006C01C41AD50A8D8D823091F49701322F50
:101C20002227330F330F330FC701807E9770822B2B
:101C3000932BEF2CFF24E694E694E694E82AF92A05
:101C40000FEF040F0C0D2FEF260F2A0DCE010E946F
:101C500064158E8D882321F08F8D98A10E948406B3
:101C6000EFA1F8A5908189A9892B8083EDA1FEA120
:101C7000908188A98095892380831C141D049CF47D
:101C80008501101611065CF46F2DCE010E945C06D2
:101C90006E2DCE010E945C0601501109F2CF81E049
:101CA000C81AD108EACFEDA1FEA1908188A9892B9D
:101CB00080838E8D882361F0DF91CF911F910F91EA
:101CC000FF90EF90DF90CF90BF90AF900C945406B0
:101CD000DF91CF911F910F91FF90EF90DF90CF9008
:101CE000BF90AF900895CF92DF92EF92FF920F9343
:101CF0001F93CF93DF93EC01690178018885998563
:101D0000681779070CF061C02A853B854217530795
:101D10000CF05BC09B012C0D3D1D821793071CF43A
:101D20006C01C61AD70A2FEF260F2C0D042FCE01F7
:101D30000E9464158D8D823091F49701322F2227F5
:101D4000330F330F330FC701807E9770822B932B95
:101D5000EF2CFF24E694E694E694E82AF92A8E8D87
:101D6000882321F08F8D98A10E948406EFA1F8A509
:101D7000908189A9892B8083EDA1FEA1908188A9FA
:101D8000809589238083C114D10461F06F2DCE0129
:101D90000E945C066E2DCE010E945C0681E0C81A8E
:101DA000D108F1CFEDA1FEA1908188A9892B808374
:101DB0008E8D882351F0DF91CF911F910F91FF906D
:101DC000EF90DF90CF900C945406DF91CF911F914C
:101DD0000F91FF90EF90DF90CF900895CF92DF9218
:101DE000EF92FF920F931F93CF93DF93EC01690162
:101DF000780188859985681779070CF062C08A8513
:101E00009B85481759070CF05CC09A012C0D3D1DAD
:101E1000821793071CF46C01C41AD50A0FEF040F44
:101E20000C0D262FCE010E9464158D8D823091F409
:101E30009701322F2227330F330F330FC701807ED4
:101E40009770822B932BEF2CFF24E694E694E69474
:101E5000E82AF92A0F2D8E8D882321F08F8D98A1E5
:101E60000E948406EFA1F8A5908189A9892B80831F
:101E7000EDA1FEA1908188A9809589238083C1145A
:101E8000D10461F0602FCE010E945C066E2DCE0160
:101E90000E945C0681E0C81AD108F1CFEDA1FEA135
:101EA000908188A9892B80838E8D882351F0DF91C2
:101EB000CF911F910F91FF90EF90DF90CF900C94F6
:101EC0005406DF91CF911F910F91FF90EF90DF901B
:101ED000CF900895EF92FF920F93CF93DF93EC0191
:101EE000790177FD56C088859985681779070CF0C8
:101EF00050C057FD4EC08A859B85481759070CF086
:101F000048C001E0040F21E0260FCE010E946415B5
:101F10008E8D882321F08F8D98A10E948406EFA1D9
:101F2000F8A5908189A9892B8083EDA1FEA19081DC
:101F300088A98095892380838D8D823091F49701C3
:101F4000322F2227330F330F330FC701807E977054
:101F5000822B932BEF2CFF24E694E694E694E82A58
:101F6000F92A6F2DCE010E945C066E2DCE010E94D3
:101F70005C06EDA1FEA1908188A9892B80838E8DBE
:101F8000882339F0DF91CF910F91FF90EF900C945F
:101F90005406DF91CF910F91FF90EF9008950F932A
:101FA0001F93CF93DF938C01EB01FC018081918122
:101FB000009739F06881798161157105A1F40E945B
:101FC000301D88819981F801918380838A819B816A
:101FD000938382838C819D81958384831982188267
:101FE0001B821A820FC0F801428153812C813D81EE
:101FF0004217530720F30E94911E8C819D81F801A6
:10200000958384831D821C82DF91CF911F910F9154
:1020100008950F931F93CF93DF93EC0188819981EB
:10202000009729F02A813B812617370788F48B0116
:102030006F5F7F4F0E94B91D009761F0998388837D
:102040001B830A832C813D81232B11F4FC01108218
:1020500081E001C080E0DF91CF911F910F91089541
:10206000EF92FF920F931F93CF93DF93EC017B01CD
:102070008A01BA010E9409102881398181110DC09D
:102080002115310519F0C9010E94301D19821882ED
:102090001D821C821B821A8206C01D830C83B7011D
:1020A000C9010E94911ECE01DF91CF911F910F9126
:1020B000FF90EF900895FC01808191810C94301D78
:1020C000FC01118210821382128215821482611522
:1020D000710551F0FB0101900020E9F73197AF0144
:1020E000461B570B0C94301008951F920F920FB699
:1020F0000F9211242F933F934F935F936F937F938E
:102100008F939F93AF93BF93EF93FF93E09102015F
:10211000F09103010995FF91EF91BF91AF919F91CC
:102120008F917F916F915F914F913F912F910F9080
:102130000FBE0F901F9018951F920F920FB60F921F
:1021400011242F933F934F935F936F937F938F93BC
:102150009F93AF93BF93EF93FF93E0910001F091B2
:1021600001010995FF91EF91BF91AF919F918F91DF
:102170007F916F915F914F913F912F910F900FBE83
:102180000F901F9018951F920F920FB60F92112467
:102190002F933F934F935F936F937F938F939F936F
:1021A000AF93BF93EF93FF9380917302909174026A
:1021B000A0917502B0917602892B8A2B8B2B59F155
:1021C00090917002E0917102F091720280818927F2
:1021D00080838091730290917402A0917502B091F6
:1021E0007602181619061A061B060CF03DC08091DF
:1021F000730290917402A0917502B09176020197DA
:10220000A109B1098093730290937402A09375029F
:10221000B093760229C080910401E5ECF5E0E491E9
:102220009FEF90930401E130B9F098F0E230C9F4E7
:10223000909170009D7F9093700091E09093B0001A
:102240009091B100987F94609093B1001092B30088
:1022500008C010926E0005C090916F009D7F909312
:102260006F0060E00E94CC15FF91EF91BF91AF919C
:102270009F918F917F916F915F914F913F912F919E
:102280000F900FBE0F901F9018951F920F920FB6D0
:102290000F9211242F933F934F935F936F937F93EC
:1022A0008F939F93AF93BF93EF93FF9387E792E052
:1022B0000E94860CFF91EF91BF91AF919F918F91FA
:1022C0007F916F915F914F913F912F910F900FBE32
:1022D0000F901F9018951F920F920FB60F92112416
:1022E0002F938F939F93EF93FF93E0918702F09149
:1022F00088028081E0918D02F0918E0282FD12C0F1
:102300009081809190028F5F8F732091910282174C
:1023100051F0E0919002F0E0E958FD4F958F8093E5
:10232000900201C08081FF91EF919F918F912F9139
:102330000F900FBE0F901F9018951F920F920FB61F
:102340000F9211242F933F934F935F936F937F933B
:102350008F939F93AF93BF93EF93FF93E0911F02EF
:10236000F0912002309709F451C0968DA685B7856B
:10237000858591FF04C09C91892329F447C09C91D5
:10238000892309F043C0A389B4899C9185898095EC
:1023900089238C93868997890197F1F7608D718DD8
:1023A000A685B785558538E020E0CB010197F1F788
:1023B000822F90E095958795282F4C91452309F021
:1023C0002068315091F7868D81FD209580911D0206
:1023D00090E001968F73992730911E02381749F0CB
:1023E000A0911D02B0E0AF5DBD4F2C9380931D0204
:1023F00003C0868D8160868F828D938D0197F1F762
:10240000A389B4899C918589892B8C93FF91EF9145
:10241000BF91AF919F918F917F916F915F914F91FC
:102420003F912F910F900FBE0F901F9018951F9303
:10243000CF93DF93EC01162F8E8D882321F08F8DA3
:1024400098A10E948406EFA1F8A5908189A9892B03
:102450008083EDA1FEA1908188A980958923808346
:10246000612FCE010E945C06EDA1FEA1908188A99A
:10247000892B80838E8D882329F0DF91CF911F9146
:102480000C945406DF91CF911F9108951F93CF9321
:10249000DF93EC01162F8E8D882321F08F8D98A16C
:1024A0000E948406EFA1F8A5908189A980958923CF
:1024B0008083EDA1FEA1908188A9809589238083E6
:1024C000612FCE010E945C06EDA1FEA1908188A93A
:1024D000892B80838E8D882329F0DF91CF911F91E6
:1024E0000C945406DF91CF911F910895611102C0A1
:1024F00060E201C061E20C94461220913D03222368
:1025000039F110923A0320913B0330913C03309310
:10251000350320933403309337032093360325E0AB
:1025200030E0309331032093300370933303609392
:102530003203009769F0FC0101900020E9F7319720
:10254000AF01481B590BBC0184E293E00C94150CBD
:102550000895BC0184E293E00C94C30DEF92FF92C6
:102560000F931F93CF93DF936115710511F480E0F2
:102570001CC041155105C1F07B01EC018C819D818E
:102580008A01080F191FB801CE010E940910882383
:1025900071F3288139818C819D81B701820F931F4E
:1025A0000E94911E1D830C8381E0DF91CF911F91CA
:1025B0000F91FF90EF9008954F925F926F927F92EC
:1025C0008F929F92AF92BF92CF92DF92EF92FF9243
:1025D0001F93CF93DF93EC01809104018E3021F0A3
:1025E0008F3F09F00AC204C0E5ECF5E014916FC01A
:1025F0008EE080930401E5ECF5E014911F3F09F4AF
:10260000FCC1113009F440C030F1123009F05FC054
:102610001092B0001092B1008091B000826080935F
:10262000B0008091B10081608093B100E8EEF5E0E8
:10263000E491F0E0EE0FFF1FE053FA4F8591949183
:102640009093720280937102ECEFF5E0E491E093D5
:10265000700212E0CDC114BC15BC84B5826084BD8B
:1026600085B5816085BDE8EEF5E0E491F0E0EE0F20
:10267000FF1FE053FA4F85919491ECEFF5E0E49160
:10268000E0937E0310E0B4C11092800010928100AC
:1026900080918100886080938100809181008160B9
:1026A00080938100E8EEF5E0E491F0E0EE0FFF1F8B
:1026B000E053FA4F85919491ECEFF5E0E491E093CB
:1026C0007D0361E08EE00E940C1711E0B1C017FDA0
:1026D00094C161E08EE00E940C17812F8D7F09F07C
:1026E000A7C04E01A12CB12C60E072E18AE790E016
:1026F000A50194010E945F1C29013A0169017A0138
:1027000021E0C21AD108E108F1088FEFC816D10400
:10271000E104F10409F008F44BC060E472E48FE0D6
:1027200090E0A50194010E945F1C69017A0181E09B
:10273000C81AD108E108F108123001F52FEFC216CE
:10274000D104E104F10409F008F4EAC060E970ED95
:1027500083E090E0A50194010E945F1C69017A0169
:1027600081E0C81AD108E108F1082FEFC216D104A0
:10277000E104F10409F030F583E053C08FEFC8168F
:10278000D104E104F104B1F0A8F068E478EE81E04E
:1027900090E0A50194010E945F1C69017A0181E02B
:1027A000C81AD108E108F108112309F4EEC0E4C009
:1027B00081E001C082E0111134C095B5987F892B6A
:1027C00085BD68C068E478EE81E090E0A5019401E1
:1027D0000E945F1C69017A0181E0C81AD108E108F2
:1027E000F1082FEFC216D104E104F10409F008F456
:1027F00095C064E274EF80E090E0A50194010E942E
:102800005F1C69017A0181E0C81AD108E108F1086A
:102810002FEFC216D104E104F10411F008F082C0D8
:1028200085E09091B100987F892B8093B10032C0F0
:102830004E01A12CB12C60E072E18AE790E0A50185
:1028400094010E945F1C69017A0181E0C81AD108D5
:10285000E108F108C114D10421E0E206F10488F096
:1028600068E478EE81E090E0A50194010E945F1C8D
:1028700069017A0181E0C81AD108E108F10883E012
:1028800001C081E0113031F490918100987F892B53
:10289000809381009E01220F331FA4EFB1E00E94BC
:1028A0001A1C28EE33E040E050E00E943D1C11303D
:1028B00099F0123019F11111A0C0C7BC2093830305
:1028C00030938403409385035093860380916E0078
:1028D000826080936E0091C0D0928900C09288007F
:1028E00020937F03309380034093810350938203AE
:1028F00080916F00826080936F007FC0C092B300B0
:1029000020937302309374024093750250937602C1
:10291000809170008260809370006FC084E081CFEE
:1029200082E07FCF62E17AE780E090E0A501940148
:102930000E945F1C69017A0181E0C81AD108E10890
:10294000F1088FEFC816D104E104F10499F090F07A
:10295000D301C2012AE0B595A795979587952A9549
:10296000D1F76C017D0121E0C21AD108E108F1081C
:1029700087E057CF86E055CF2FEFC216D104E10490
:10298000F10409F078F684E016CF8FEFC816D10471
:10299000E104F10459F150F162E17AE780E090E05E
:1029A000A50194010E945F1C69017A0181E0C81AA7
:1029B000D108E108F1082FEFC216D104E104F104B7
:1029C00099F090F0D301C2013AE0B595A79597959B
:1029D00087953A95D1F76C017D0121E0C21AD108A3
:1029E000E108F10885E0E9CE84E0E7CE83E0E5CEBA
:1029F00061E08EE00E940C1774CEDF91CF911F91A1
:102A0000FF90EF90DF90CF90BF90AF909F908F900E
:102A10007F906F905F904F900895DF92EF92FF92BA
:102A20000F931F93CF93DF938C01F62ED42EE52EB8
:102A300083E590E00E94840660E0F80186850E94AC
:102A4000CC1582E10E945506CD2DDE2DCE018F0DD5
:102A5000911D7C01EC16FD0621F089910E9455061E
:102A6000F9CF61E0F80186850E94CC15DF91CF9106
:102A70001F910F91FF90EF90DF900C9454063FB799
:102A8000F89480918C0390918D03A0918E03B09166
:102A90008F0326B5A89B05C02F3F19F00196A11DF5
:102AA000B11D3FBFBA2FA92F982F8827820F911DE4
:102AB000A11DB11DBC01CD0142E0660F771F881F2B
:102AC000991F4A95D1F70895EF92FF920F931F93A4
:102AD000CF93DF93EC01E62E142FF22E6AE20E94D0
:102AE000461260E0CE010E9417126AA96E0DCE0157
:102AF0000E94171260E0CE010E9417126AA96F0DA2
:102B0000CE010E9417126BE2CE010E94461260E0D5
:102B1000CE010E9417126BA9610FCE010E941712FD
:102B200060E0CE010E9417126BA9600FCE010E94D7
:102B300017126CE2CE01DF91CF911F910F91FF90A0
:102B4000EF900C944612833081F028F4813099F094
:102B50008230A1F008958730A9F08830B9F0843030
:102B6000D1F4809180008F7D03C0809180008F77A9
:102B700080938000089584B58F7702C084B58F7DDF
:102B800084BD08958091B0008F7703C08091B0001C
:102B90008F7D8093B00008951F93CF93DF93282FEC
:102BA00030E0F901E45FF94F8491F901E251FA4F05
:102BB000D491F901E652FA4FC491CC23C1F0162FFB
:102BC00081110E94A315EC2FF0E0EE0FFF1FE053E0
:102BD000FA4FA591B4919FB7F894111104C08C914C
:102BE000D095D82302C0EC91DE2BDC939FBFDF9100
:102BF000CF911F9108954F925F926F927F928F9223
:102C00009F92AF92BF92CF92DF92EF92FF920F937B
:102C10001F93CF93DF9300D0CDB7DEB74C012B01CC
:102C2000D42E3901E114F10419F0F701408101C0FB
:102C300040E0B42EF0E1CF9EB00C112440E062E001
:102C4000C4010E94A5064FE768E0C4010E94A506E2
:102C500040E864E1C4010E94A506A2016D2DC401F3
:102C60000E940D154B2D6AE1C4010E94A5064CE09F
:102C700062E0C4010E94A5066AE1C4010E948706C1
:102C8000482F40686AE1C4010E94A50680ED482EE5
:102C900087E0582E68E0C4010E948706982F907341
:102CA00041F480FD04C081E0481A510899F783E09F
:102CB000A0C06CE0C4010E948706D82E837109F081
:102CC00095C06114710409F45AC00115110509F485
:102CD00056C064E1C4010E948706B82EF8018081C5
:102CE0008B1508F47DC0B082BB20F1F183E590E044
:102CF0000E94840660E0F40186850E94CC15BA9497
:102D000082E90E945506CC20A9F08FEF90E02C01BB
:102D100001C0440CCA94EAF782E90E945506242DAA
:102D20002095F301908192238421892B8083CC24E8
:102D3000C39401C0C12C4C2C512C460C571CCB14F5
:102D400038F482E90E945506F2018083C394F3CFE0
:102D500080E00E945506F201808361E0F4018685DF
:102D60000E94CC150E94540668E1C4010E948706A7
:102D70008770E114F10421F0F701808301C080E045
:102D8000D3FC30C06114710479F10115110561F1B2
:102D9000AA2051F1F8014081413021F4843041F5FD
:102DA0008FEF27C0423020F1811122C042509E0196
:102DB0002F5F3F4FB301C4010E94C206811119C0A9
:102DC000F8018081680E711CF3013297908189812E
:102DD00098130EC0319690818A81981309C004C05F
:102DE00084E007C082E005C080E003C081E001C04C
:102DF00087E00F900F90DF91CF911F910F91FF907F
:102E0000EF90DF90CF90BF90AF909F908F907F908A
:102E10006F905F904F900895CF93DF9390E0FC0107
:102E2000E251FA4F2491FC01E652FA4F8491882333
:102E300061F190E0880F991FFC01EE5FF94FC59199
:102E4000D491FC01E053FA4FA591B491611109C0EE
:102E50009FB7F8948881209582238883EC912E2354
:102E60000BC0623061F49FB7F8948881322F30959F
:102E700083238883EC912E2B2C939FBF06C08FB7A2
:102E8000F894E8812E2B28838FBFDF91CF9108958E
:102E90008F929F92AF92BF92CF92DF92EF92FF926A
:102EA0006B017C010E943F154B015C01C114D104F0
:102EB000E104F104F1F00E943F15DC01CB01881917
:102EC0009909AA09BB09883E9340A105B10570F391
:102ED00021E0C21AD108E108F10888EE880E83E0EB
:102EE000981EA11CB11CC114D104E104F10419F70E
:102EF000DDCFFF90EF90DF90CF90BF90AF909F908D
:102F00008F9008951F920F920FB60F9211242F9356
:102F10003F938F939F93AF93BF938091880390913A
:102F20008903A0918A03B0918B033091870323E03A
:102F3000230F2D3720F40196A11DB11D05C026E8F1
:102F4000230F0296A11DB11D209387038093880350
:102F500090938903A0938A03B0938B0380918C0391
:102F600090918D03A0918E03B0918F030196A11DC6
:102F7000B11D80938C0390938D03A0938E03B09327
:102F80008F03BF91AF919F918F913F912F910F90A0
:102F90000FBE0F901F90189588E593E00E945B107C
:102FA0008AE891E090935F0380935E0380911F0213
:102FB000909120028E55934071F4E0917103F0914D
:102FC000720390818091730380958923808310928E
:102FD000200210921F020895CF93DF93CDB7DEB782
:102FE0006C970FB6F894DEBF0FBECDBF789484B552
:102FF000826084BD84B5816084BD85B5826085BDF5
:1030000085B5816085BD80916E00816080936E0082
:103010001092810080918100826080938100809174
:103020008100816080938100809180008160809325
:1030300080008091B10084608093B1008091B000E5
:1030400081608093B00080917A00846080937A00E0
:1030500080917A00826080937A0080917A0081600A
:1030600080937A0080917A00806880937A00109231
:10307000C1000E942B09DD24D39488248A94982CC3
:103080009E012F5F3F4F39012E013AE0430E511C44
:1030900080915C0390915D03892B09F4D7C16EEA9E
:1030A00071E080915803909159030E94881E892BEA
:1030B00009F0CCC161EB71E0CE0140960E94601036
:1030C00084E193E00E942207882309F4BAC184E1D5
:1030D00093E00E940E06882309F4B3C1E091210316
:1030E000EF77E13428F4F0E0E55FFE4F808101C026
:1030F00080E08350833008F0A4C1809116038E8B4A
:10310000EDB7FEB7FC8FEB8F282E312C86E0829D29
:103110009001839D300D1124388F2F8BE21BF30B10
:103120000FB6F894FEBF0FBEEDBF2DB73EB72F5FB1
:103130003F4F5901810179010115110559F061EBEA
:1031400071E0C7010E94601036E0E30EF11C0150EF
:103150001109F2CF87E193E09A8F898F750185017C
:10316000C12C9E899C1551F1E98DFA8D8191FA8FC0
:10317000E98F1B861A861D861C861F861E8640E1E7
:10318000B30190E00E94B91BF30101900020E9F720
:103190003197AF0146195709B301C2010E9430109F
:1031A0000415150521F0B201C8010E94CF0FC2011C
:1031B0000E945B10C3940A5F1F4FD3CF61EB71E095
:1031C000C3010E94601000E010E002151305ACF48A
:1031D000F7014481558160817181C3010E94AE1263
:1031E00041E050E060EB71E0C3010E94AE120F5F5E
:1031F0001F4FF6E0EF0EF11CE8CF0F89188D0A0D76
:103200001B1DA016B10631F006501109C8010E941D
:103210005B10F7CF2B8D3C8D0FB6F8943EBF0FBEE1
:103220002DBFB301CE0140960E94CF0FC3010E9473
:103230005B1030E539831A829E012D5F3F4F42E0DB
:10324000B30184E193E00E94C20681110EC0A12C5B
:10325000C12CE12CF12C00E010E020E030E044E053
:10326000B30184E193E00E94FB1548E060E184E152
:1032700093E00E940E070C891D890115110519F4B0
:103280001092630210C00C30110510F00CE010E039
:1032900068897989A80183E692E00E94981EF80166
:1032A000ED59FD4F1082E3E6F2E001900020E9F7CE
:1032B0003197AF014356524063E672E08EE593E0EA
:1032C0000E94150C68EC70E080E090E00E944817C6
:1032D00061EB71E0C3010E94601064E670E080E081
:1032E00090E00E9448178EE593E00E948A0D892B9A
:1032F00061F08EE593E00E94A20D8A871B8641E073
:1033000050E0B201C3010E94AE128D819E81892BD3
:1033100059F01B861A861D861C861F861E86B301E1
:10332000C2010E94CF0F05C06EEA71E0C2010E9487
:103330006010C3010E945B10B20188E593E00E9417
:10334000CF0FC2010E945B1080915C0390915D03DE
:10335000892B09F45AC062EB71E080915803909177
:1033600059030E94881E892B09F04FC080E098EF16
:103370000E94A912D0923D0390923C0380923B039D
:1033800090923503809234039092370380923603F3
:1033900068E270E084EB91E00E947D1288EB9BE094
:1033A0000E94DC1268EE73E080E090E00E94481713
:1033B00080E098EF0E94A912D0923D0390923C03C6
:1033C00080923B03909235038092340390923703AE
:1033D0008092360364E170E083EC91E00E947D12FC
:1033E00068E270E087ED91E00E947D126CE370E08E
:1033F0008CED91E00E947D1260E570E083EE91E03B
:103400000E947D120E940C091CC080E098EF0E946F
:10341000A912D0923D0390923C0380923B0390927C
:10342000350380923403909237038092360368E22A
:1034300070E08BEE91E00E947D1284E690E00E94A5
:10344000DC12CE0140960E945B1088C064E670E0FA
:1034500080E090E00E94481780916202882309F47E
:103460007DC00E94170980916102882369F180E084
:1034700098EF0E94A912D0923D0390923C03809253
:103480003B039092350380923403909237038092ED
:10349000360368E270E089EF91E00E947D1241E01E
:1034A00050E06EEA71E088E593E00E9430101092DF
:1034B00061021092620268EE73E080E090E00E9488
:1034C00048170E942B094AC080E098EF0E94A91279
:1034D000D0923D0390923C0380923B03909235033F
:1034E00080923403909237038092360368E270E052
:1034F00085E092E00E947D1268EE73E080E090E04B
:103500000E94481780E098EF0E94A912D0923D03D4
:1035100090923C0380923B03909235038092340357
:10352000909237038092360364E170E083EC91E07F
:103530000E947D1268E270E087ED91E00E947D12AA
:103540006CE370E08CED91E00E947D1260E570E02C
:1035500083EE91E00E947D120E940C090E94170DDB
:1035600097CD10927A021092790288EE93E0A0E053
:10357000B0E080937B0290937C02A0937D02B09395
:103580007E0220E531E0309378022093770225EC2B
:1035900030E0309384022093830224EC30E03093B7
:1035A00086022093850220EC30E03093880220933D
:1035B000870221EC30E030938A022093890222ECCA
:1035C00030E030938C0220938B0226EC30E0309375
:1035D0008E0220938D02109290021092910210920E
:1035E00092021092930210926103109260038093F2
:1035F000620390936303A0936403B09365038AE826
:1036000091E090935F0380935E0310927503109294
:10361000740310927703109276031092790310923C
:10362000780310927B0310927A0360917C036E7F83
:103630006D7F60937C036695617081E0682785E00B
:103640000E94CC1561E085E00E940C17E3EFF5E0E5
:10365000E491E0936E03EFEDF5E0E491F0E0EE0F1E
:10366000FF1FE053FA4F85919491909370038093DC
:103670006F0360E084E00E940C1780917C0381FD61
:1036800004C061E084E00E94CC1584E080936A036A
:10369000E2EFF5E0E491E0936B03EEEDF5E0E49109
:1036A000F0E0EE0FFF1FEA53FA4F8591949190934B
:1036B0006D0380936C036EEA71E088E593E00E94ED
:1036C0006010109227031092260320E830E0309318
:1036D00029032093280340EA50E050932B034093A2
:1036E0002A03109239031092310310923003109282
:1036F00033031092320381E0809338036FEF7FEF42
:1037000070933703609336037093350360933403EB
:1037100080933A0390E5909343031092440398E01A
:1037200090934D0397E090934E0396E090934F0350
:103730008093420310925103109250038CE691E063
:10374000909325038093240350932D0340932C03DF
:1037500030932F0320932E0382E691E0909315037C
:10376000809314038AE08093220389E080932303EB
:103770000895BB27FB015527AA27880F991FAA1F69
:10378000A41710F0A41B83955051B9F7A05DAA337C
:1037900008F0A95DA193009779F7B111B193119247
:1037A000CB010C94D31BDC01FC01672F71917723B3
:1037B000E1F7329704C07C916D9370836291AE17EC
:1037C000BF07C8F308952F923F924F925F926F9276
:1037D0007F928F929F92AF92BF92CF92DF92EF92A1
:1037E000FF920F931F93CF93DF93CDB7DEB7CA1B22
:1037F000DB0B0FB6F894DEBF0FBECDBF09942A884D
:10380000398848885F846E847D848C849B84AA84F4
:10381000B984C884DF80EE80FD800C811B81AA8181
:10382000B981CE0FD11D0FB6F894DEBF0FBECDBF4C
:10383000ED010895A29FB001B39FC001A39F700D39
:10384000811D1124911DB29F700D811D1124911DA8
:10385000089597FB072E16F4009407D077FD09D042
:103860000E947E1C07FC05D03EF4909581959F4FE9
:103870000895709561957F4F0895A1E21A2EAA1BB5
:10388000BB1BFD010DC0AA1FBB1FEE1FFF1FA21710
:10389000B307E407F50720F0A21BB30BE40BF50B0D
:1038A000661F771F881F991F1A9469F76095709596
:1038B000809590959B01AC01BD01CF010895052E27
:1038C00097FB1EF400940E94761C57FD07D00E94BF
:1038D0003D1C07FC03D04EF40C94761C509540958B
:1038E000309521953F4F4F4F5F4F089590958095AC
:1038F000709561957F4F8F4F9F4F0895AA1BBB1BFB
:1039000051E107C0AA1FBB1FA617B70710F0A61BDF
:10391000B70B881F991F5A95A9F780959095BC0100
:10392000CD010895EE0FFF1F0590F491E02D09944D
:103930000F931F93CF93DF938230910510F482E0B1
:1039400090E0E0919203F091930320E030E0A0E05A
:10395000B0E0309719F140815181028113814817FD
:103960005907C8F08417950769F4109731F012963B
:103970000C93129713961C9327C0009392031093F5
:10398000930322C02115310519F04217530718F48B
:103990009A01BD01EF01DF01F801DBCF21153105EF
:1039A000F9F0281B390B2430310580F48A819B8182
:1039B0006115710521F0FB019383828304C090930C
:1039C000930380939203FE01329644C0FE01E20FFE
:1039D000F31F8193919322503109398328833AC090
:1039E0002091900330919103232B41F42091070102
:1039F00030910801309391032093900320910501A9
:103A0000309106012115310541F42DB73EB74091A3
:103A1000090150910A01241B350BE0919003F091AC
:103A20009103E217F307A0F42E1B3F0B2817390769
:103A300078F0AC014E5F5F4F2417350748F04E0F0A
:103A40005F1F50939103409390038193919302C021
:103A5000E0E0F0E0CF01DF91CF911F910F91089549
:103A6000CF93DF93009709F481C0FC013297138252
:103A70001282A0919203B0919303109781F4208158
:103A80003181820F931F2091900330919103281769
:103A9000390751F5F0939103E093900367C0ED016E
:103AA00020E030E0CE17DF0740F44A815B819E01C1
:103AB00041155105F1F0EA01F5CFD383C28340816E
:103AC0005181840F951FC817D90759F488819981AE
:103AD000840F951F0296918380838A819B819383B3
:103AE00082832115310529F4F0939303E093920327
:103AF0003DC0E901FB83EA8349915991C40FD51F69
:103B0000EC17FD0761F480819181840F951F029667
:103B1000E90199838883828193819B838A83E0E092
:103B2000F0E012968D919C911397009719F0FD018A
:103B3000DC01F7CF8D919C9111979D012E5F3F4F36
:103B4000820F931F2091900330919103281739071A
:103B500069F4309729F4109293031092920302C0F3
:103B600013821282B0939103A0939003DF91CF91BF
:103B70000895A0E0B0E0EFEBFDE10C94E71BEC0151
:103B8000009721F4CB010E94981CB4C0FC01E60F01
:103B9000F71F9C0122503109E217F30708F4A8C06F
:103BA000D9010D911C91119706171707B0F0053038
:103BB000110508F49BC0C80104978617970708F4FD
:103BC00095C002501109061B170B019311936D93B9
:103BD0007C93CF010E94301D89C05B01A01AB10AFD
:103BE0004C01800E911EA0919203B0919303612C21
:103BF000712CE12CF12C109709F446C08D919C9109
:103C00001197A815B905B1F56C0142E0C40ED11C9D
:103C1000CA14DB0478F14C018A189B08640142E065
:103C2000C40ED11C1296BC9012971396AC91B5E0BD
:103C3000CB16D10440F0B282A38391828082D90155
:103C40006D937C9309C00E5F1F4F800F911FF90188
:103C500091838083EB2DFA2FE114F10431F0D70129
:103C60001396FC93EE93129741C0F0939303E09365
:103C700092033CC06816790608F43C017D01129657
:103C80000D90BC91A02DB7CF80919003909191039E
:103C900088169906E1F466167706C8F48091050146
:103CA00090910601009741F48DB79EB740910901AC
:103CB00050910A01841B950BE817F907C8F4F0939B
:103CC0009103E0939003F901718360830FC0CB01EE
:103CD0000E94981C7C01009759F0A801BE010E9427
:103CE0007F1ECE010E94301DC70104C0CE0102C05C
:103CF00080E090E0CDB7DEB7EEE00C94031CFB0152
:103D0000DC0102C001900D9241505040D8F7089557
:103D1000FB01DC018D91019080190110D9F3990B01
:103D20000895FB01DC0101900D920020E1F7089558
:103D3000FB01DC014150504048F001900D92002001
:103D4000C9F701C01D9241505040E0F7089513E0BB
:103D5000C1E1D3E004C0FE010E94921C2196C23151
:083D6000D107C9F7F894FFCF69
:103D6800140C140CFF00009403800006090000FFE7
:103D78000000000403000000000000070700000026
:103D88000000000500000000000000010000000025
:103D9800000000000000000000000000000000001B
:103DA8000000000000000000000000020000000009
:103DB800A80C150C3F0CF50C700C4E0C620C000096
:103DC8000000850722070E06000000004D03150CB1
:103DD8000B06130C6A0F5905EE0E730E0A05E00D5B
:103DE800C30D76123C03000000003A0D150C0B06BB
:103DF800390D8A0DA20D210D506C65617365207314
:103E080063616E2052464944206361726400660013
:103E180020007400416363657373204772616E7498
:103E28006564005768617473205468652050617335
:103E380073776F72643F00736E6F7700616E6765AA
:103E48006C7300636F6F6B696573004163636573BF
:103E5800732044656E69656400446F6F72204F700B
:103E6800656E65640057726F6E6720416E73776583
:0C3E7800722054727920416761696E006D
:107E0000112484B714BE81FFF0D085E080938100F7
:107E100082E08093C00088E18093C10086E0809377
:107E2000C20080E18093C4008EE0C9D0259A86E02C
:107E300020E33CEF91E0309385002093840096BBD3
:107E4000B09BFECF1D9AA8958150A9F7CC24DD24C4
:107E500088248394B5E0AB2EA1E19A2EF3E0BF2EE7
:107E6000A2D0813461F49FD0082FAFD0023811F036
:107E7000013811F484E001C083E08DD089C08234E0
:107E800011F484E103C0853419F485E0A6D080C0E4
:107E9000853579F488D0E82EFF2485D0082F10E0AE
:107EA000102F00270E291F29000F111F8ED06801E7
:107EB0006FC0863521F484E090D080E0DECF843638
:107EC00009F040C070D06FD0082F6DD080E0C81688
:107ED00080E7D80618F4F601B7BEE895C0E0D1E017
:107EE00062D089930C17E1F7F0E0CF16F0E7DF06D8
:107EF00018F0F601B7BEE89568D007B600FCFDCFD4
:107F0000A601A0E0B1E02C9130E011968C91119780
:107F100090E0982F8827822B932B1296FA010C0160
:107F200087BEE89511244E5F5F4FF1E0A038BF0790
:107F300051F7F601A7BEE89507B600FCFDCF97BE46
:107F4000E89526C08437B1F42ED02DD0F82E2BD052
:107F50003CD0F601EF2C8F010F5F1F4F84911BD097
:107F6000EA94F801C1F70894C11CD11CFA94CF0C13
:107F7000D11C0EC0853739F428D08EE10CD085E9AC
:107F80000AD08FE07ACF813511F488E018D01DD067
:107F900080E101D065CF982F8091C00085FFFCCF94
:107FA0009093C60008958091C00087FFFCCF809118
:107FB000C00084FD01C0A8958091C6000895E0E648
:107FC000F0E098E1908380830895EDDF803219F02E
:107FD00088E0F5DFFFCF84E1DECF1F93182FE3DFCA
:107FE0001150E9F7F2DF1F91089580E0E8DFEE27F6
:047FF000FF270994CA
:027FFE00040479
:0400000300007E007B
:00000001FF
